{
  "contractName": "DataTypesExample",
  "abi": [
    {
      "inputs": [],
      "stateMutability": "nonpayable",
      "type": "constructor"
    },
    {
      "inputs": [],
      "name": "integerValue",
      "outputs": [
        {
          "internalType": "uint256",
          "name": "",
          "type": "uint256"
        }
      ],
      "stateMutability": "view",
      "type": "function"
    },
    {
      "inputs": [],
      "name": "isActive",
      "outputs": [
        {
          "internalType": "bool",
          "name": "",
          "type": "bool"
        }
      ],
      "stateMutability": "view",
      "type": "function"
    },
    {
      "inputs": [],
      "name": "message",
      "outputs": [
        {
          "internalType": "string",
          "name": "",
          "type": "string"
        }
      ],
      "stateMutability": "view",
      "type": "function"
    },
    {
      "inputs": [],
      "name": "owner",
      "outputs": [
        {
          "internalType": "address",
          "name": "",
          "type": "address"
        }
      ],
      "stateMutability": "view",
      "type": "function"
    },
    {
      "inputs": [
        {
          "internalType": "string",
          "name": "newMessage",
          "type": "string"
        }
      ],
      "name": "updateMessage",
      "outputs": [],
      "stateMutability": "nonpayable",
      "type": "function"
    },
    {
      "inputs": [],
      "name": "getMessageLength",
      "outputs": [
        {
          "internalType": "uint256",
          "name": "",
          "type": "uint256"
        }
      ],
      "stateMutability": "view",
      "type": "function"
    }
  ],
  "bytecode": "0x608060405234801562000010575f80fd5b50335f806101000a81548173ffffffffffffffffffffffffffffffffffffffff021916908373ffffffffffffffffffffffffffffffffffffffff160217905550602a600181905550600160025f6101000a81548160ff0219169083151502179055506040518060400160405280600d81526020017f48656c6c6f2c20576f726c64210000000000000000000000000000000000000081525060039081620000b8919062000323565b5062000407565b5f81519050919050565b7f4e487b71000000000000000000000000000000000000000000000000000000005f52604160045260245ffd5b7f4e487b71000000000000000000000000000000000000000000000000000000005f52602260045260245ffd5b5f60028204905060018216806200013b57607f821691505b602082108103620001515762000150620000f6565b5b50919050565b5f819050815f5260205f209050919050565b5f6020601f8301049050919050565b5f82821b905092915050565b5f60088302620001b57fffffffffffffffffffffffffffffffffffffffffffffffffffffffffffffffff8262000178565b620001c1868362000178565b95508019841693508086168417925050509392505050565b5f819050919050565b5f819050919050565b5f6200020b62000205620001ff84620001d9565b620001e2565b620001d9565b9050919050565b5f819050919050565b6200022683620001eb565b6200023e620002358262000212565b84845462000184565b825550505050565b5f90565b6200025462000246565b620002618184846200021b565b505050565b5b8181101562000288576200027c5f826200024a565b60018101905062000267565b5050565b601f821115620002d757620002a18162000157565b620002ac8462000169565b81016020851015620002bc578190505b620002d4620002cb8562000169565b83018262000266565b50505b505050565b5f82821c905092915050565b5f620002f95f1984600802620002dc565b1980831691505092915050565b5f620003138383620002e8565b9150826002028217905092915050565b6200032e82620000bf565b67ffffffffffffffff8111156200034a5762000349620000c9565b5b62000356825462000123565b620003638282856200028c565b5f60209050601f83116001811462000399575f841562000384578287015190505b62000390858262000306565b865550620003ff565b601f198416620003a98662000157565b5f5b82811015620003d257848901518255600182019150602085019450602081019050620003ab565b86831015620003f25784890151620003ee601f891682620002e8565b8355505b6001600288020188555050505b505050505050565b610ca980620004155f395ff3fe608060405234801561000f575f80fd5b5060043610610060575f3560e01c80631923be241461006457806322f3e2d4146100805780638da5cb5b1461009e578063cb398f2f146100bc578063e21f37ce146100da578063f5701ede146100f8575b5f80fd5b61007e6004803603810190610079919061053b565b610116565b005b610088610312565b604051610095919061059c565b60405180910390f35b6100a6610324565b6040516100b391906105f4565b60405180910390f35b6100c4610347565b6040516100d19190610625565b60405180910390f35b6100e261034d565b6040516100ef91906106b8565b60405180910390f35b6101006103d9565b60405161010d9190610625565b60405180910390f35b5f8054906101000a900473ffffffffffffffffffffffffffffffffffffffff1673ffffffffffffffffffffffffffffffffffffffff163373ffffffffffffffffffffffffffffffffffffffff16146101a3576040517f08c379a000000000000000000000000000000000000000000000000000000000815260040161019a90610748565b60405180910390fd5b5f8151116101e6576040517f08c379a00000000000000000000000000000000000000000000000000000000081526004016101dd906107b0565b60405180910390fd5b5f600380546101f4906107fb565b905090505f825190508060018190555060025f9054906101000a900460ff161560025f6101000a81548160ff02191690831515021790555080820361026e576040517f08c379a000000000000000000000000000000000000000000000000000000000815260040161026590610875565b60405180910390fd5b8260405160200161027f91906108cd565b6040516020818303038152906040528051906020012060036040516020016102a79190610975565b60405160208183030381529060405280519060200120036102fd576040517f08c379a00000000000000000000000000000000000000000000000000000000081526004016102f4906109fb565b60405180910390fd5b826003908161030c9190610ba4565b50505050565b60025f9054906101000a900460ff1681565b5f8054906101000a900473ffffffffffffffffffffffffffffffffffffffff1681565b60015481565b6003805461035a906107fb565b80601f0160208091040260200160405190810160405280929190818152602001828054610386906107fb565b80156103d15780601f106103a8576101008083540402835291602001916103d1565b820191905f5260205f20905b8154815290600101906020018083116103b457829003601f168201915b505050505081565b5f600380546103e7906107fb565b9050905090565b5f604051905090565b5f80fd5b5f80fd5b5f80fd5b5f80fd5b5f601f19601f8301169050919050565b7f4e487b71000000000000000000000000000000000000000000000000000000005f52604160045260245ffd5b61044d82610407565b810181811067ffffffffffffffff8211171561046c5761046b610417565b5b80604052505050565b5f61047e6103ee565b905061048a8282610444565b919050565b5f67ffffffffffffffff8211156104a9576104a8610417565b5b6104b282610407565b9050602081019050919050565b828183375f83830152505050565b5f6104df6104da8461048f565b610475565b9050828152602081018484840111156104fb576104fa610403565b5b6105068482856104bf565b509392505050565b5f82601f830112610522576105216103ff565b5b81356105328482602086016104cd565b91505092915050565b5f602082840312156105505761054f6103f7565b5b5f82013567ffffffffffffffff81111561056d5761056c6103fb565b5b6105798482850161050e565b91505092915050565b5f8115159050919050565b61059681610582565b82525050565b5f6020820190506105af5f83018461058d565b92915050565b5f73ffffffffffffffffffffffffffffffffffffffff82169050919050565b5f6105de826105b5565b9050919050565b6105ee816105d4565b82525050565b5f6020820190506106075f8301846105e5565b92915050565b5f819050919050565b61061f8161060d565b82525050565b5f6020820190506106385f830184610616565b92915050565b5f81519050919050565b5f82825260208201905092915050565b5f5b8381101561067557808201518184015260208101905061065a565b5f8484015250505050565b5f61068a8261063e565b6106948185610648565b93506106a4818560208601610658565b6106ad81610407565b840191505092915050565b5f6020820190508181035f8301526106d08184610680565b905092915050565b7f4f6e6c7920746865206f776e65722063616e2063616c6c20746869732066756e5f8201527f6374696f6e000000000000000000000000000000000000000000000000000000602082015250565b5f610732602583610648565b915061073d826106d8565b604082019050919050565b5f6020820190508181035f83015261075f81610726565b9050919050565b7f4d6573736167652063616e6e6f7420626520656d7074790000000000000000005f82015250565b5f61079a601783610648565b91506107a582610766565b602082019050919050565b5f6020820190508181035f8301526107c78161078e565b9050919050565b7f4e487b71000000000000000000000000000000000000000000000000000000005f52602260045260245ffd5b5f600282049050600182168061081257607f821691505b602082108103610825576108246107ce565b5b50919050565b7f546865206e6577206d657373616765206973206e6f74206c6f6e6765720000005f82015250565b5f61085f601d83610648565b915061086a8261082b565b602082019050919050565b5f6020820190508181035f83015261088c81610853565b9050919050565b5f81905092915050565b5f6108a78261063e565b6108b18185610893565b93506108c1818560208601610658565b80840191505092915050565b5f6108d8828461089d565b915081905092915050565b5f819050815f5260205f209050919050565b5f8154610901816107fb565b61090b8186610893565b9450600182165f8114610925576001811461093a5761096c565b60ff198316865281151582028601935061096c565b610943856108e3565b5f5b8381101561096457815481890152600182019150602081019050610945565b838801955050505b50505092915050565b5f61098082846108f5565b915081905092915050565b7f546865206e6577206d657373616765206973207468652073616d6520617320745f8201527f68652063757272656e74206d6573736167650000000000000000000000000000602082015250565b5f6109e5603283610648565b91506109f08261098b565b604082019050919050565b5f6020820190508181035f830152610a12816109d9565b9050919050565b5f6020601f8301049050919050565b5f82821b905092915050565b5f60088302610a637fffffffffffffffffffffffffffffffffffffffffffffffffffffffffffffffff82610a28565b610a6d8683610a28565b95508019841693508086168417925050509392505050565b5f819050919050565b5f610aa8610aa3610a9e8461060d565b610a85565b61060d565b9050919050565b5f819050919050565b610ac183610a8e565b610ad5610acd82610aaf565b848454610a34565b825550505050565b5f90565b610ae9610add565b610af4818484610ab8565b505050565b5b81811015610b1757610b0c5f82610ae1565b600181019050610afa565b5050565b601f821115610b5c57610b2d816108e3565b610b3684610a19565b81016020851015610b45578190505b610b59610b5185610a19565b830182610af9565b50505b505050565b5f82821c905092915050565b5f610b7c5f1984600802610b61565b1980831691505092915050565b5f610b948383610b6d565b9150826002028217905092915050565b610bad8261063e565b67ffffffffffffffff811115610bc657610bc5610417565b5b610bd082546107fb565b610bdb828285610b1b565b5f60209050601f831160018114610c0c575f8415610bfa578287015190505b610c048582610b89565b865550610c6b565b601f198416610c1a866108e3565b5f5b82811015610c4157848901518255600182019150602085019450602081019050610c1c565b86831015610c5e5784890151610c5a601f891682610b6d565b8355505b6001600288020188555050505b50505050505056fea2646970667358221220c29bc9134d1a6c14abdc50f5165943604dd2392be891b5963b4cf14807d56ca564736f6c63430008150033",
  "immutableReferences": {},
  "source": "// SPDX-License-Identifier: MIT\r\npragma solidity ^0.8.0;\r\n\r\n/**\r\n * @title DataTypesExample\r\n * @dev A sample contract demonstrating the usage of data types and basic functionalities in Solidity.\r\n */\r\ncontract DataTypesExample {\r\n    // State variables\r\n    address public owner;\r\n    uint256 public integerValue;\r\n    bool public isActive;\r\n    string public message;\r\n\r\n    /**\r\n     * @dev Modifier restricting access only to the owner.\r\n     */\r\n    modifier onlyOwner() {\r\n        require(msg.sender == owner, \"Only the owner can call this function\");\r\n        _; // Continue execution if the requirement is met\r\n    }\r\n\r\n    /**\r\n     * @dev Constructor of the contract.\r\n     */\r\n    constructor() {\r\n        owner = msg.sender;\r\n        integerValue = 42;\r\n        isActive = true;\r\n        message = \"Hello, World!\";\r\n    }\r\n\r\n    /**\r\n     * @dev Function that updates the contract's message.\r\n     * @param newMessage New message to be set.\r\n     */\r\n    function updateMessage(string memory newMessage) public onlyOwner {\r\n        require(bytes(newMessage).length > 0, \"Message cannot be empty\");\r\n\r\n        // Local variables\r\n        uint256 messageLength = bytes(message).length;\r\n        uint256 newMessageLength = bytes(newMessage).length;\r\n\r\n        // Update state variables\r\n        integerValue = newMessageLength;\r\n        isActive = !isActive;\r\n\r\n        // Control flow structure\r\n        require(messageLength != newMessageLength, \"The new message is not longer\");\r\n\r\n        // Corrected line: Revert the transaction with a custom error message\r\n        if (keccak256(abi.encodePacked(message)) == keccak256(abi.encodePacked(newMessage))) {\r\n            revert(\"The new message is the same as the current message\");\r\n        }\r\n\r\n        message = newMessage;\r\n    }\r\n\r\n    /**\r\n     * @dev Read-only function that returns the length of the message.\r\n     * @return The length of the message.\r\n     */\r\n    function getMessageLength() public view returns (uint256) {\r\n        return bytes(message).length;\r\n    }\r\n}\r\n",
  "sourcePath": "C:\\Users\\eliso\\Documents\\projetos\\course-solidity\\contracts\\FunctionsModifiers.sol",
  "compiler": {
    "name": "solc",
    "version": "0.8.21+commit.d9974bed.Emscripten.clang"
  },
  "schemaVersion": "3.4.16",
  "updatedAt": "2024-01-26T16:17:59.711Z",
  "devdoc": {
    "details": "A sample contract demonstrating the usage of data types and basic functionalities in Solidity.",
    "kind": "dev",
    "methods": {
      "constructor": {
        "details": "Constructor of the contract."
      },
      "getMessageLength()": {
        "details": "Read-only function that returns the length of the message.",
        "returns": {
          "_0": "The length of the message."
        }
      },
      "updateMessage(string)": {
        "details": "Function that updates the contract's message.",
        "params": {
          "newMessage": "New message to be set."
        }
      }
    },
    "title": "DataTypesExample",
    "version": 1
  },
  "userdoc": {
    "kind": "user",
    "methods": {},
    "version": 1
  }
}