{
  "contractName": "DataTypes",
  "abi": [
    {
      "inputs": [],
      "stateMutability": "nonpayable",
      "type": "constructor"
    },
    {
      "inputs": [],
      "name": "integerValue",
      "outputs": [
        {
          "internalType": "uint256",
          "name": "",
          "type": "uint256"
        }
      ],
      "stateMutability": "view",
      "type": "function"
    },
    {
      "inputs": [],
      "name": "isActive",
      "outputs": [
        {
          "internalType": "bool",
          "name": "",
          "type": "bool"
        }
      ],
      "stateMutability": "view",
      "type": "function"
    },
    {
      "inputs": [],
      "name": "message",
      "outputs": [
        {
          "internalType": "string",
          "name": "",
          "type": "string"
        }
      ],
      "stateMutability": "view",
      "type": "function"
    },
    {
      "inputs": [],
      "name": "owner",
      "outputs": [
        {
          "internalType": "address",
          "name": "",
          "type": "address"
        }
      ],
      "stateMutability": "view",
      "type": "function"
    },
    {
      "inputs": [
        {
          "internalType": "string",
          "name": "newMessage",
          "type": "string"
        }
      ],
      "name": "updateMessage",
      "outputs": [],
      "stateMutability": "nonpayable",
      "type": "function"
    },
    {
      "inputs": [],
      "name": "getMessageLength",
      "outputs": [
        {
          "internalType": "uint256",
          "name": "",
          "type": "uint256"
        }
      ],
      "stateMutability": "view",
      "type": "function"
    }
  ],
  "bytecode": "0x608060405234801562000010575f80fd5b50335f806101000a81548173ffffffffffffffffffffffffffffffffffffffff021916908373ffffffffffffffffffffffffffffffffffffffff160217905550602a600181905550600160025f6101000a81548160ff0219169083151502179055506040518060400160405280600d81526020017f48656c6c6f2c20576f726c64210000000000000000000000000000000000000081525060039081620000b8919062000323565b5062000407565b5f81519050919050565b7f4e487b71000000000000000000000000000000000000000000000000000000005f52604160045260245ffd5b7f4e487b71000000000000000000000000000000000000000000000000000000005f52602260045260245ffd5b5f60028204905060018216806200013b57607f821691505b602082108103620001515762000150620000f6565b5b50919050565b5f819050815f5260205f209050919050565b5f6020601f8301049050919050565b5f82821b905092915050565b5f60088302620001b57fffffffffffffffffffffffffffffffffffffffffffffffffffffffffffffffff8262000178565b620001c1868362000178565b95508019841693508086168417925050509392505050565b5f819050919050565b5f819050919050565b5f6200020b62000205620001ff84620001d9565b620001e2565b620001d9565b9050919050565b5f819050919050565b6200022683620001eb565b6200023e620002358262000212565b84845462000184565b825550505050565b5f90565b6200025462000246565b620002618184846200021b565b505050565b5b8181101562000288576200027c5f826200024a565b60018101905062000267565b5050565b601f821115620002d757620002a18162000157565b620002ac8462000169565b81016020851015620002bc578190505b620002d4620002cb8562000169565b83018262000266565b50505b505050565b5f82821c905092915050565b5f620002f95f1984600802620002dc565b1980831691505092915050565b5f620003138383620002e8565b9150826002028217905092915050565b6200032e82620000bf565b67ffffffffffffffff8111156200034a5762000349620000c9565b5b62000356825462000123565b620003638282856200028c565b5f60209050601f83116001811462000399575f841562000384578287015190505b62000390858262000306565b865550620003ff565b601f198416620003a98662000157565b5f5b82811015620003d257848901518255600182019150602085019450602081019050620003ab565b86831015620003f25784890151620003ee601f891682620002e8565b8355505b6001600288020188555050505b505050505050565b610aac80620004155f395ff3fe608060405234801561000f575f80fd5b5060043610610060575f3560e01c80631923be241461006457806322f3e2d4146100805780638da5cb5b1461009e578063cb398f2f146100bc578063e21f37ce146100da578063f5701ede146100f8575b5f80fd5b61007e600480360381019061007991906104b2565b610116565b005b610088610289565b6040516100959190610513565b60405180910390f35b6100a661029b565b6040516100b3919061056b565b60405180910390f35b6100c46102be565b6040516100d1919061059c565b60405180910390f35b6100e26102c4565b6040516100ef919061062f565b60405180910390f35b610100610350565b60405161010d919061059c565b60405180910390f35b5f8054906101000a900473ffffffffffffffffffffffffffffffffffffffff1673ffffffffffffffffffffffffffffffffffffffff163373ffffffffffffffffffffffffffffffffffffffff16146101a3576040517f08c379a000000000000000000000000000000000000000000000000000000000815260040161019a906106bf565b60405180910390fd5b5f8151116101e6576040517f08c379a00000000000000000000000000000000000000000000000000000000081526004016101dd90610727565b60405180910390fd5b5f600380546101f490610772565b905090505f825190508060018190555060025f9054906101000a900460ff161560025f6101000a81548160ff02191690831515021790555080821015610249578260039081610243919061093f565b50610284565b6040517f08c379a000000000000000000000000000000000000000000000000000000000815260040161027b90610a58565b60405180910390fd5b505050565b60025f9054906101000a900460ff1681565b5f8054906101000a900473ffffffffffffffffffffffffffffffffffffffff1681565b60015481565b600380546102d190610772565b80601f01602080910402602001604051908101604052809291908181526020018280546102fd90610772565b80156103485780601f1061031f57610100808354040283529160200191610348565b820191905f5260205f20905b81548152906001019060200180831161032b57829003601f168201915b505050505081565b5f6003805461035e90610772565b9050905090565b5f604051905090565b5f80fd5b5f80fd5b5f80fd5b5f80fd5b5f601f19601f8301169050919050565b7f4e487b71000000000000000000000000000000000000000000000000000000005f52604160045260245ffd5b6103c48261037e565b810181811067ffffffffffffffff821117156103e3576103e261038e565b5b80604052505050565b5f6103f5610365565b905061040182826103bb565b919050565b5f67ffffffffffffffff8211156104205761041f61038e565b5b6104298261037e565b9050602081019050919050565b828183375f83830152505050565b5f61045661045184610406565b6103ec565b9050828152602081018484840111156104725761047161037a565b5b61047d848285610436565b509392505050565b5f82601f83011261049957610498610376565b5b81356104a9848260208601610444565b91505092915050565b5f602082840312156104c7576104c661036e565b5b5f82013567ffffffffffffffff8111156104e4576104e3610372565b5b6104f084828501610485565b91505092915050565b5f8115159050919050565b61050d816104f9565b82525050565b5f6020820190506105265f830184610504565b92915050565b5f73ffffffffffffffffffffffffffffffffffffffff82169050919050565b5f6105558261052c565b9050919050565b6105658161054b565b82525050565b5f60208201905061057e5f83018461055c565b92915050565b5f819050919050565b61059681610584565b82525050565b5f6020820190506105af5f83018461058d565b92915050565b5f81519050919050565b5f82825260208201905092915050565b5f5b838110156105ec5780820151818401526020810190506105d1565b5f8484015250505050565b5f610601826105b5565b61060b81856105bf565b935061061b8185602086016105cf565b6106248161037e565b840191505092915050565b5f6020820190508181035f83015261064781846105f7565b905092915050565b7f4f6e6c7920746865206f776e65722063616e2063616c6c20746869732066756e5f8201527f6374696f6e000000000000000000000000000000000000000000000000000000602082015250565b5f6106a96025836105bf565b91506106b48261064f565b604082019050919050565b5f6020820190508181035f8301526106d68161069d565b9050919050565b7f4d6573736167652063616e6e6f7420626520656d7074790000000000000000005f82015250565b5f6107116017836105bf565b915061071c826106dd565b602082019050919050565b5f6020820190508181035f83015261073e81610705565b9050919050565b7f4e487b71000000000000000000000000000000000000000000000000000000005f52602260045260245ffd5b5f600282049050600182168061078957607f821691505b60208210810361079c5761079b610745565b5b50919050565b5f819050815f5260205f209050919050565b5f6020601f8301049050919050565b5f82821b905092915050565b5f600883026107fe7fffffffffffffffffffffffffffffffffffffffffffffffffffffffffffffffff826107c3565b61080886836107c3565b95508019841693508086168417925050509392505050565b5f819050919050565b5f61084361083e61083984610584565b610820565b610584565b9050919050565b5f819050919050565b61085c83610829565b6108706108688261084a565b8484546107cf565b825550505050565b5f90565b610884610878565b61088f818484610853565b505050565b5b818110156108b2576108a75f8261087c565b600181019050610895565b5050565b601f8211156108f7576108c8816107a2565b6108d1846107b4565b810160208510156108e0578190505b6108f46108ec856107b4565b830182610894565b50505b505050565b5f82821c905092915050565b5f6109175f19846008026108fc565b1980831691505092915050565b5f61092f8383610908565b9150826002028217905092915050565b610948826105b5565b67ffffffffffffffff8111156109615761096061038e565b5b61096b8254610772565b6109768282856108b6565b5f60209050601f8311600181146109a7575f8415610995578287015190505b61099f8582610924565b865550610a06565b601f1984166109b5866107a2565b5f5b828110156109dc578489015182556001820191506020850194506020810190506109b7565b868310156109f957848901516109f5601f891682610908565b8355505b6001600288020188555050505b505050505050565b7f546865206e6577206d657373616765206973206e6f74206c6f6e6765720000005f82015250565b5f610a42601d836105bf565b9150610a4d82610a0e565b602082019050919050565b5f6020820190508181035f830152610a6f81610a36565b905091905056fea2646970667358221220f44e42f9226767afaf8bc3f8b7b945cf8e6876bad5d6a92150dc0d21610ad57664736f6c63430008150033",
  "immutableReferences": {},
  "source": "// SPDX-License-Identifier: MIT\r\npragma solidity ^0.8.0;\r\n\r\ncontract DataTypes {\r\n    // State variables\r\n    address public owner;\r\n    uint256 public integerValue;\r\n    bool public isActive;\r\n    string public message;\r\n\r\n    modifier onlyOwner() {\r\n        require(msg.sender == owner, \"Only the owner can call this function\");\r\n        _; // Continue execution if the requirement is met\r\n    }\r\n\r\n    // Constructor\r\n    constructor() {\r\n        owner = msg.sender;\r\n        integerValue = 42;\r\n        isActive = true;\r\n        message = \"Hello, World!\";\r\n    }\r\n\r\n    // Function using various data types\r\n    function updateMessage(string memory newMessage) public onlyOwner {\r\n        require(bytes(newMessage).length > 0, \"Message cannot be empty\");\r\n        \r\n        // Local variables\r\n        uint256 messageLength = bytes(message).length;\r\n        uint256 newMessageLength = bytes(newMessage).length;\r\n\r\n        // Update state variables\r\n        integerValue = newMessageLength;\r\n        isActive = !isActive;\r\n\r\n        // Control flow structure\r\n        if (messageLength < newMessageLength) {\r\n            message = newMessage;\r\n        } else {\r\n            revert(\"The new message is not longer\");\r\n        }\r\n    }\r\n\r\n    // Read-only function that doesn't modify the state (using view)\r\n    function getMessageLength() public view returns (uint256) {\r\n        return bytes(message).length;\r\n    }\r\n}\r\n",
  "sourcePath": "C:\\Users\\eliso\\Documents\\projetos\\course-solidity\\contracts\\DataTypes.sol",
  "compiler": {
    "name": "solc",
    "version": "0.8.21+commit.d9974bed.Emscripten.clang"
  },
  "schemaVersion": "3.4.16",
  "updatedAt": "2024-01-26T23:38:19.271Z",
  "devdoc": {
    "kind": "dev",
    "methods": {},
    "version": 1
  },
  "userdoc": {
    "kind": "user",
    "methods": {},
    "version": 1
  }
}