{
  "contractName": "Derived",
  "abi": [
    {
      "inputs": [
        {
          "internalType": "uint256",
          "name": "_data",
          "type": "uint256"
        }
      ],
      "stateMutability": "nonpayable",
      "type": "constructor"
    },
    {
      "inputs": [],
      "name": "data",
      "outputs": [
        {
          "internalType": "uint256",
          "name": "",
          "type": "uint256"
        }
      ],
      "stateMutability": "view",
      "type": "function"
    },
    {
      "inputs": [],
      "name": "getData",
      "outputs": [
        {
          "internalType": "uint256",
          "name": "",
          "type": "uint256"
        }
      ],
      "stateMutability": "view",
      "type": "function"
    }
  ],
  "bytecode": "0x608060405234801561000f575f80fd5b5060405161018538038061018583398181016040528101906100319190610076565b80805f8190555050506100a1565b5f80fd5b5f819050919050565b61005581610043565b811461005f575f80fd5b50565b5f815190506100708161004c565b92915050565b5f6020828403121561008b5761008a61003f565b5b5f61009884828501610062565b91505092915050565b60d8806100ad5f395ff3fe6080604052348015600e575f80fd5b50600436106030575f3560e01c80633bc5de3014603457806373d4a13a14604e575b5f80fd5b603a6068565b60405160459190608b565b60405180910390f35b60546070565b604051605f9190608b565b60405180910390f35b5f8054905090565b5f5481565b5f819050919050565b6085816075565b82525050565b5f602082019050609c5f830184607e565b9291505056fea26469706673582212208d1bef15dbda517f05a4be034103ed957f6345f86b1856caefcc5ce81139eae264736f6c63430008150033",
  "immutableReferences": {},
  "source": "// SPDX-License-Identifier: MIT\r\npragma solidity ^0.8.4;\r\n\r\n// Base contract with a state variable\r\ncontract Base {\r\n    // Public state variable to store data\r\n    uint256 public data;\r\n\r\n    // Constructor to initialize data\r\n    constructor(uint256 _data) {\r\n        data = _data;\r\n    }\r\n}\r\n\r\n// Derived contract inheriting from Base\r\ncontract Derived is Base {\r\n    /**\r\n     * @dev Constructor for the Derived contract.\r\n     * @param _data Initial value for the 'data' variable.\r\n     */\r\n    constructor(uint256 _data) Base(_data) {\r\n        // The 'Base' constructor is called with the specified '_data' argument.\r\n    }\r\n\r\n    /**\r\n     * @dev Function in the derived contract to get the value of the data.\r\n     * @return The value of the data variable.\r\n     */\r\n    function getData() public view returns (uint256) {\r\n        return data;\r\n    }\r\n}\r\n",
  "sourcePath": "C:\\Users\\eliso\\Documents\\projetos\\course-solidity\\contracts\\Inheritance.sol",
  "compiler": {
    "name": "solc",
    "version": "0.8.21+commit.d9974bed.Emscripten.clang"
  },
  "schemaVersion": "3.4.16",
  "updatedAt": "2024-01-26T23:38:19.330Z",
  "devdoc": {
    "kind": "dev",
    "methods": {
      "constructor": {
        "details": "Constructor for the Derived contract.",
        "params": {
          "_data": "Initial value for the 'data' variable."
        }
      },
      "getData()": {
        "details": "Function in the derived contract to get the value of the data.",
        "returns": {
          "_0": "The value of the data variable."
        }
      }
    },
    "version": 1
  },
  "userdoc": {
    "kind": "user",
    "methods": {},
    "version": 1
  }
}